:100000000C94CA000C9461020C946D020C947C0256
:100010000C948B020C94E7000C94E7000C94E7001E
:100020000C94E7000C948A080C94E7000C94E70009
:100030000C94E7000C94E7000C94E7000C94E700A4
:100040000C94E7000C94E7000C945C070C942107D7
:100050000C94E7000C94E7000C94E7000C94E70084
:100060000C94E7000C94E7000C94E7000C94E70074
:100070000C94E7000C94E7000C94E7000C94E70064
:100080000C94E7000C94E7000C94E700D400D8002F
:10009000DC00E000E400E800EC00F000F400F70011
:1000A000FB00FF00030108010C01100114011901FC
:1000B0001D01210126012A012F01340139013E01D0
:1000C000430147014A014E01520156015A015E01A6
:1000D000620166017E90907FFE92926D7C828245E5
:1000E000FE82827DFE929283FE9090817C82925D60
:1000F000FE1010FF82FE83040202FDFE1028C7FEE0
:10010000020203FE403040FFFE2010FF7C82827D11
:10011000FE9090617C828A7C03FE90986764929244
:100120004D8080FE8081FC0202FDF8040204F9FC8F
:10013000021C02FDC6281028C7E0100E10E1868AB6
:1001400092A2C37C92A27D42FE03468A92634492AD
:10015000926D182848FFE4A2A29D7C92924D809E49
:10016000A0C16C92926D6492927D1B5B25643B25CD
:100170006448001B5B306D001B5B376D001B5B32FE
:100180004A001B5B4B001B5B25646D001B5B421B25
:100190005B44000011241FBECFEFD0E1DEBFCDBF16
:1001A00011E0A0E0B1E0ECE0FAE102C005900D92B0
:1001B000AA37B107D9F712E0AAE7B1E001C01D9252
:1001C000A63DB107E1F70E94C6080C94040D0C94FB
:1001D0000000E1E9F1E08FE011928150E9F78FEF43
:1001E0008093A0010895CF92DF92EF92FF920F9338
:1001F0001F93CF93DF93A091A0018A2F992787FDAA
:1002000090952091A5016C01C20ED11C60E070E0B8
:10021000C1EAD1E0C81BD90BF6E0EF2EF12C3BC0B0
:10022000C901880F991FF80122918F0130E00B2E30
:1002300002C0359527950A94E2F721703070282B7B
:10024000392BA7FD14C04A1794F04C155D057CF4BA
:10025000FE01E40FF51F808190E00B2E02C0959502
:1002600087950A94E2F781709070282B392B4150C2
:100270005040FFEF4F3F5F0799F6F701E61BF70B82
:10028000EE0FFF1FE455FE4F318320836F5F7F4FDA
:100290006730710541F000EA11E04EE050E020E0E7
:1002A00030E0B62FBDCFDF91CF911F910F91FF901E
:1002B000EF90DF90CF90089581E09091A0019F3F53
:1002C00009F480E00895A1EAB1E0E091A001FF27E0
:1002D000E7FDF095EF56FE4F2091A50180E005C0A7
:1002E0003D919081932B91938F5F8217C9F78FEF88
:1002F0008093A00108950895DC0114962C91149721
:1003000030E080E090E0772767FD70956F567E4F74
:1003100009C04D91FB01E80FF91F5081452301965B
:10032000442329F482179307A4F380E0089581E021
:100330000895CF93DF9300D000D000D0CDB7DEB7C3
:1003400081EA91E0BE016F5F7F4F0E94D50381EA91
:1003500091E00E94EE03882371F081EA91E06091C0
:10036000A0010E947C01882341F0CE01019661EA40
:1003700071E00E94D50380E001C081E026960FB6AF
:10038000F894DEBF0FBECDBFDF91CF910895CF931C
:10039000C091A001CC2361F0C15081EA91E06C2FA3
:1003A0000E947C01882321F4C093A00181E001C058
:1003B00080E0CF9108951F93CF93DF9300D000D0BA
:1003C00000D0CDB7DEB7182F81EA91E0BE016F5F94
:1003D0007F4F0E94D50381EA91E0112319F40E9416
:1003E000B70402C00E94D004882371F081EA91E032
:1003F0006091A0010E947C01882341F0CE0101960A
:1004000061EA71E00E94D50380E001C081E0269698
:100410000FB6F894DEBF0FBECDBFDF91CF911F9115
:100420000895CF93DF9300D000D000D0CDB7DEB7D2
:100430000E94630429833A834B835C836D837E83AC
:10044000A1EAB1E0FE01319686E001900D92815063
:10045000E1F72091A4019091A5018FE0921710F48B
:10046000821B01C0891B8093A00181EA91E0609109
:10047000A0010E947C01882329F08FEF8093A001C6
:1004800080E001C081E026960FB6F894DEBF0FBE73
:10049000CDBFDF91CF9108958AEA80936A008FE003
:1004A00089BF88BF8FEF8093000108959FB7F894AC
:1004B000809100012FEF2093000197FF01C07894F5
:1004C00008951F920F920FB60F92112410920001FF
:1004D0000F900FBE0F901F9018951F920F920FB69E
:1004E0000F9211248F9381E0809300018F910F90E0
:1004F0000FBE0F901F9018951F920F920FB60F927C
:1005000011248F9382E0809300018F910F900FBE92
:100510000F901F9018951F920F920FB60F921124F3
:100520008F9383E0809300018F910F900FBE0F9007
:100530001F901895000000000000000008958FB97A
:10054000779BFECF8FB1089587B3876087BBC09A32
:1005500081E58DB981E08EB90895DF92EF92FF9227
:100560000F931F93CF93DF9300D0CDB7DEB7C09822
:100570001FE06A8389830E949A0211506A818981EF
:100580001123B9F7882311F480E801C081E86111D3
:1005900082600E949F02182F0AE00E949A02015076
:1005A000E1F780E00E949F02082F2AE0F22E0E94CD
:1005B0009A02FA94E1F780E00E949F02E82E9AE006
:1005C000F92E0E949A02FA94E1F780E00E949F02BD
:1005D000D82E8AE0F82E0E949A02FA94E1F780E081
:1005E0000E949F028093AB01C09A502F40E0212FC0
:1005F00030E0242B352B3093A8012093A7013D2D0B
:1006000020E08E2D90E0822B932B9093AA01809373
:10061000A9010F900F90DF91CF911F910F91FF9043
:10062000EF90DF90089520EF22B923B910927A015C
:1006300090937C0180937B0110927D0108954091FD
:100640007A01442309F454C0E0B366B320B386B3FF
:1006500070E0607270707595679575956795F0E0BC
:10066000E074F070F595E795F595E7956E2B30E021
:10067000207130703595279535952795622B90E040
:1006800080749070E5E095958795EA95E1F7682B81
:1006900050E0DA01A258BE4F8C91681749F16C9373
:1006A0006E3131F181E090E070E09B01082E02C0D4
:1006B000359527950A94E2F720FD16C0FC01EE0F50
:1006C000FF1FEE0FFF1FE80FF91FE40FF51FEF5F8D
:1006D000FE4F808180937D01E0917B01F0917C0150
:1006E000309731F0099504C0019685309105E9F6FF
:1006F00080917A018F5F80937A01853018F081E0D4
:1007000080937A01E0917A01F0E0E65EFE4F80810D
:1007100083B908959FB7F89480917D0110927D016F
:1007200097FF01C0789408958FEF8ABB8FE784BB51
:1007300087E0809364001092AD011092AC0110929A
:10074000AF011092AE011092B1011092B00110925F
:10075000B3011092B2011092B5011092B40110923F
:10076000B7011092B6011092B9011092B801089524
:10077000809183018F5F80938301873011F4109201
:100780008301E0918301E0936500F0E0EE0FFF1F2D
:10079000E455FE4F8081918180958BBB8081918152
:1007A000892F8F77809585BB0895FC01DB018081BF
:1007B0008C93818111968C931197828112968C93E0
:1007C0001297838113968C931397848114968C933C
:1007D0001497858115968C93159708956F927F9243
:1007E0008F929F92AF92BF92CF92DF92EF92FF9241
:1007F0000F931F93CF93DF9300D000D000D0CDB7DD
:10080000DEB7FC013581C32EDD242481C601820FB1
:10081000911D883091050CF040C02C8363816D835D
:100820003E8319821A821B828F012150AE014F5FD5
:100830005F4F4601841A950A1FC0D801EC90FF242F
:10084000C401860D971D02C0F594E7948A95E2F7DE
:100850008E2D817090E00A2C02C0880F991F0A9497
:10086000E2F7D3019C91982B9D933D013F5F361792
:1008700021F70F5F1F4F21502F3F49F03A0130E021
:10088000A22EBB24A7FCB094AC0CBD1CF0CFCA01B7
:10089000BF010E94D50381E001C080E026960FB61B
:1008A000F894DEBF0FBECDBFDF91CF911F910F91A6
:1008B000FF90EF90DF90CF90BF90AF909F908F9080
:1008C0007F906F900895EF92FF920F931F93CF93B5
:1008D000DF93CDB7DEB72C970FB6F894DEBF0FBE0F
:1008E000CDBF0E94880965E070E00E94CF08FC013E
:1008F000EE0FFF1FE80FF91FEE0FFF1FDE01179627
:10090000E15EFE4F86E001900D928150E1F70E947A
:10091000880964E070E00E94CF087C0100E010E0EC
:1009200006C0CE0107960E94EE030F5F1F4F0E1503
:100930001F05BCF3DE011196FE01379686E001909B
:100940000D928150E1F729813A814B815C816D8163
:100950007E8190E02C960FB6F894DEBF0FBECDBF1F
:10096000DF91CF911F910F91FF90EF900895FC01BF
:100970002581838190E0820F911D8730910574F469
:10098000DF01348180E004C09C91990F9D938F5FBB
:100990008317D1F72F5F258381E0089580E00895C4
:1009A00080E008950E94B8030E941F0308950E94EA
:1009B000E9000E94F3000E94C9050E9456020E94AD
:1009C0008A030E941C0708958F929F92AF92BF9254
:1009D000CF92DF92EF92FF92CF930E9476084B0165
:1009E0005C010E9476086B017C01D501C40188512D
:1009F0009C4FAF4FBF4FC816D906EA06FB06A8F0BA
:100A00000E945C01882351F00E94C701C82F8823EF
:100A100071F40E9463014601570105C00E94110252
:100A2000882309F451C0C1E004C0C0E002C04601FF
:100A300057010E948A03882361F40E945602843081
:100A4000D8F58F5906C08091D0029091D1020E94B2
:100A50009809813391F0823318F4803339F51EC040
:100A6000813419F0843411F513C00E945C0188238D
:100A7000E9F00E949901C82B19C00E945C018823EB
:100A8000A9F00E94C7018823E1F40E94630119C004
:100A90000E945C01882351F081E005C00E945C0146
:100AA000882321F080E00E94DB01C82FCC2309F4C9
:100AB00098CF0E94F30095CF0E9415078823B1F3C9
:100AC000C2CF46015701F5CFCF91FF90EF90DF9055
:100AD000CF90BF90AF909F908F900895FFCF60E030
:100AE0007BE480E090E040E00E94D3060E94940303
:100AF00080E090E00E94130382ED94E00E9462087F
:100B00000E944C02789408958F929F92AF92BF9268
:100B1000CF92DF92EF92FF920E94E3078AE090E08B
:100B20006CE070E00E94AE078DE391E00E94020A43
:100B300080E691E00E94DE058824992454010E94F9
:100B400076086B017C01D501C4018A569F4FAF4FD7
:100B5000BF4FC816D906EA06FB0630F00E94E3052F
:100B6000882371F0460157010E9456028F3F41F4DD
:100B70000E948A03882321F40E9415078823F9F232
:100B8000FF90EF90DF90CF90BF90AF909F908F90AD
:100B900008951092BB011092BA0108952091BA01F4
:100BA0003091BB01280F391F3093BB012093BA014C
:100BB00008958091BA019091BB01089590938501A9
:100BC000809384010895CF93DF93E0918601F091A3
:100BD0008701309779F0A491A0FF05C0109287019A
:100BE0001092860105C03196F0938701E09386014B
:100BF00080E04AC0A0918801B0918901109781F1ED
:100C0000ED91B0938901A0938801EE2329F410920D
:100C100089011092880136C08E2F81568A3130F4B6
:100C2000F0E0EE0FFF1FE653F04013C08E2F81540B
:100C30008A3130F4F0E0EE0FFF1FE65FFF4F09C08E
:100C40008E2F80538A30F0F4F0E0EE0FFF1FE05A51
:100C5000FF4F85919491809386019093870112C0F4
:100C6000209184013091850181E02115310509F041
:100C700080E03093890120938801109285011092C1
:100C8000840101C080E0A0E060E070E0B0E0FB0122
:100C9000EE0FFF1FE455FE4F408151819B01295FFC
:100CA0003F4FED0102C0CC0FDD1F2A95E2F79E01F8
:100CB0002070307456954795242B352B3183208333
:100CC000882339F02081318181E090E021153105C0
:100CD00011F080E090E06F5F7F4F67307105B9F6EB
:100CE00091E08927DF91CF910895CF93C82F8A3063
:100CF00019F48DE00E9475068FB7807802C08823B2
:100D0000F9F09091BD019F3FD1F3F8949091BC010F
:100D1000E92FF0E0E254FE4FC0839F5F9093BC0147
:100D20009091BD019F5F9093BD019091BC019F3F49
:100D300011F41092BC01559A882329F0789403C0CD
:100D400081E090E002C080E090E0CF910895809132
:100D5000CF028823E1F32FB72078F8948091BD0269
:100D60003091CF0290E0831B9109E091BD0297FF83
:100D700008C08091CF02F0E0E81BF109E253FD4F7B
:100D800007C08091CF02F0E0E81BF109E254FD4F6B
:100D900080819091CF0291509093CF02222309F04D
:100DA000789490E008950F931F938B019C0110920B
:100DB000BC011092BD011092BD021092CF021092A0
:100DC000CE0240938A0143E0000F111F221F331F00
:100DD0004A95D1F760E072E18AE790E0A9019801B5
:100DE0000E94E20889019A010F5F1F4F2F4F3F4F6A
:100DF000C901B80122E030E040E050E00E94E20882
:100E0000215030403093900029B988E18AB9579A2F
:100E100087E691E09093D3028093D2029093D1021F
:100E20008093D0021F910F9108959091CF0281E09D
:100E3000992309F480E008951092BD021092CF0228
:100E400008951F920F920FB60F9211242F938F9334
:100E50009F93EF93FF938091BD01882311F18091BF
:100E6000BC012091BD0190E0821B9109E091BC0181
:100E700097FF08C08091BD01F0E0E81BF109E35441
:100E8000FD4F07C08091BD01F0E0E81BF109E2547D
:100E9000FE4F90818091BD0181508093BD019CB92E
:100EA00001C05598FF91EF919F918F912F910F90D5
:100EB0000FBE0F901F9018951F920F920FB60F92B2
:100EC00011242F933F934F935F936F937F938F934F
:100ED0009F93AF93BF93CF93EF93FF93CCB1809148
:100EE0008A01882349F08091BD018F3F29F08C2F22
:100EF00060E070E00E9475068091CF02803120F0A2
:100F000081E08093CE0218C0CD3009F4CAE0809110
:100F1000BD02E82FF0E0E254FD4FC0838F5F809365
:100F2000BD028091CF028F5F8093CF028091BD027E
:100F3000803111F41092BD02FF91EF91CF91BF91DA
:100F4000AF919F918F917F916F915F914F913F9161
:100F50002F910F900FBE0F901F90189500D000D0CA
:100F600000D0EDB7FEB731962AE631E0ADB7BEB797
:100F700012963C932E931197738362839583848397
:100F80000E94D8098DB79EB706960FB6F8949EBFFB
:100F90000FBE8DBF089500D083E791E0EDB7FEB797
:100FA000928381830E94D8090F900F90089500D0FA
:100FB00088E791E0EDB7FEB7928381830E94D8095C
:100FC0000F900F90089500D08DE791E0EDB7FEB738
:100FD000928381830E94D8090F900F90089500D0CA
:100FE00082E891E0EDB7FEB7928381830E94D80931
:100FF0000F900F90089500D000D026E831E0EDB7B3
:10100000FEB732832183992787FD9095948383834C
:101010000E94D8090F900F900F900F900895EF92B3
:10102000FF920F931F93CF93DF939C01162F072FEF
:101030007A01862F972FB9010E94AE070E94D70729
:10104000C12FD02F05C080E290E00E94FB092196BD
:10105000EC16FD06C4F70E94CB07DF91CF911F91DC
:101060000F91FF90EF900895EF92FF920F931F93CF
:10107000CF93DF93162F072F7A010E94AE070E94AD
:10108000D707C12FD02F0CE811E00CC00E94FB093C
:1010900000D0EDB7FEB7128301830E94D8092196D4
:1010A0000F900F9080E290E0CE15DF057CF30E9458
:1010B000FB090E94CB07DF91CF911F910F91FF9009
:1010C000EF90089510928B0110928C0110928D0177
:1010D00010928E019093900180938F018CE783BDD5
:1010E00087B7806887BF8BE085BD08950F931F93F6
:1010F0008FB7F89400918B0110918C0120918D0194
:1011000030918E0187FF01C07894B801C9011F9109
:101110000F9108951F920F920FB60F9211242F93E3
:101120003F934F935F936F937F938F939F93AF936F
:10113000BF93EF93FF9380918B0190918C01A091CD
:101140008D01B0918E010196A11DB11D80938B017F
:1011500090938C01A0938D01B0938E01E0918F014B
:10116000F0919001309709F00995FF91EF91BF91AF
:10117000AF919F918F917F916F915F914F913F912F
:101180002F910F900FBE0F901F9018950E946F0522
:101190000E9484050E94D7040E94E404FFCF97FBBD
:1011A000092E07260AD077FD04D027D006D00020CC
:1011B0001AF4709561957F4F0895F6F79095819593
:1011C0009F4F089597FB092E05260ED057FD04D09A
:1011D00028D00AD0001C38F45095409530952195C0
:1011E0003F4F4F4F5F4F0895F6F79095809570955C
:1011F00061957F4F8F4F9F4F0895AA1BBB1B51E1F5
:1012000007C0AA1FBB1FA617B70710F0A61BB70B76
:10121000881F991F5A95A9F780959095BC01CD011B
:101220000895A1E21A2EAA1BBB1BFD010DC0AA1F27
:10123000BB1FEE1FFF1FA217B307E407F50720F03F
:10124000A21BB30BE40BF50B661F771F881F991FBA
:101250001A9469F760957095809590959B01AC0103
:10126000BD01CF0108958F929F92AF92BF92CF920E
:10127000DF92EF92FF92CF93DF93EC018881998107
:10128000AA81BB810097A105B10521F484E299ED03
:10129000ABE5B7E0BC01CD012DE133EF41E050E01B
:1012A0000E94E20849015A0127EA31E440E050E097
:1012B0000E94AE0C6B017C01C501B4012CEE34EF31
:1012C0004FEF5FEF0E94AE0CDC01CB01C80ED91EC0
:1012D000EA1EFB1EF7FE08C08FEF9FEFAFEFBFE7E0
:1012E000C80ED91EEA1EFB1EC882D982EA82FB8282
:1012F000C6019F77DF91CF91FF90EF90DF90CF9065
:10130000BF90AF909F908F9008950E9433090895E9
:1013100085E791E00E9433090895A0E0B0E0809352
:10132000750190937601A0937701B09378010895A9
:10133000CF93DF93EC012B8120FF35C026FF09C03E
:101340002F7B2B838E819F8101969F838E838A8141
:1013500028C022FF0FC0E881F9818081992787FD8D
:101360009095009719F420622B831DC03196F98364
:10137000E88311C0EA85FB85CE01099597FF0BC074
:101380002B813FEF8F3F930711F480E101C080E292
:10139000822B8B8308C02E813F812F5F3F4F3F837D
:1013A0002E8390E002C08FEF9FEFDF91CF910895E1
:1013B000A0E0B0E0EEEDF9E00C94DD0CFE01359616
:1013C000619171918091D2029091D302DC011396C8
:1013D0002C911397286013962C93AF010E94300A2A
:1013E000E091D202F091D3022381277F23832096BC
:1013F000E2E00C94F90C6091D2027091D3020E9449
:10140000240C08950F931F93CF93DF938C01E091E9
:10141000D202F091D302838181FF1AC0C0E0D0E0F4
:1014200005C00995009711F0CFEFDFEFF80181912A
:101430008F016091D2027091D302DB011896ED9179
:10144000FC911997882369F78AE00995009711F0B4
:10145000CFEFDFEFCE01DF91CF911F910F91089574
:10146000ADE0B0E0E6E3FAE00C94CD0C3C017D8702
:101470006C875A01FC0117821682838181FFC8C1E3
:101480002E010894411C511CF3019381EC85FD85CC
:1014900093FD859193FF8191FD87EC87882309F463
:1014A000B3C1853241F493FD859193FF8191FD870E
:1014B000EC87853229F490E0B3010E94240CE4CF3C
:1014C000FF24EE2410E01032B0F48B3269F08C323D
:1014D00028F4803251F0833271F40BC08D3239F030
:1014E000803349F411602CC01260146029C0186068
:1014F00027C0106125C017FD2EC0282F20532A3089
:1015000098F416FF08C08F2D880FF82EFF0CFF0CE3
:10151000F80EF20E15C08E2D880FE82EEE0CEE0C94
:10152000E80EE20E10620CC08E3221F416FD6CC182
:10153000106406C08C3611F4106802C0883659F465
:10154000EC85FD8593FD859193FF8191FD87EC8767
:10155000882309F0B8CF982F9554933018F0905203
:10156000933038F424E030E0A20EB31E3FE3398319
:101570000FC0833631F0833781F0833509F05AC0CC
:1015800022C0F5018081898322E030E0A20EB31EE3
:1015900021E0C22ED12C420114C092E0292E312C20
:1015A0002A0C3B1CF5018080918016FF03C06F2D33
:1015B00070E002C06FEF7FEFC4010E94190C6C0154
:1015C00051011F7715C082E0282E312C2A0C3B1CBC
:1015D000F5018080918016FF03C06F2D70E002C07E
:1015E0006FEF7FEFC4010E940E0C6C011068510177
:1015F00013FD1CC006C080E290E0B3010E94240CE1
:10160000EA948E2D90E0C816D906A8F30FC0F40115
:1016100017FD859117FF81914F0190E0B3010E9462
:10162000240CE110EA940894C108D108C114D10433
:1016300071F7E7C0843611F0893651F5F50117FFCF
:1016400007C080819181A281B38124E030E008C08D
:1016500080819181AA2797FDA095BA2F22E030E0E2
:10166000A20EB31E012F0F76B7FF08C0B095A0954C
:10167000909581959F4FAF4FBF4F0068BC01CD0142
:10168000A2012AE030E00E94500CD82ED4183FC0AE
:10169000853721F41F7E2AE030E020C0197F8F3685
:1016A000A9F0803720F4883509F0AEC00BC0803730
:1016B00021F0883709F0A8C001C0106114FF09C0EB
:1016C000146007C014FF08C0166006C028E030E0B0
:1016D00005C020E130E002C020E132E0F50117FF53
:1016E00007C0608171818281938144E050E006C02F
:1016F0006081718180E090E042E050E0A40EB51E70
:10170000A2010E94500CD82ED418012F0F7706FF8B
:1017100009C00E7FDF1430F404FF06C002FD04C0D0
:101720000F7E02C01D2D01C01F2D802F90E004FFF1
:101730000CC0FE01ED0DF11D2081203311F4097E56
:1017400009C002FF06C01E5F05C086789070009732
:1017500009F01F5F802E992403FD12C000FF0DC009
:10176000FD2C1E1550F4FE0CF11A1E2D06C080E251
:1017700090E0B3010E94240C1F5F1E15C0F304C04B
:101780001E1510F4E11A01C0EE2484FE0FC080E3A0
:1017900090E0B3010E94240C82FE1FC081FE03C0B2
:1017A00088E590E010C088E790E00DC0C40186781D
:1017B0009070009791F081FC02C080E201C08BE242
:1017C00007FD8DE290E0B3010E94240C06C080E387
:1017D00090E0B3010E94240CFA94DF14C0F3DA9471
:1017E000F201ED0DF11D808190E0B3010E94240C07
:1017F000DD20A9F706C080E290E0B3010E94240C2E
:10180000EA94EE20C1F740CEF3018681978102C0B1
:101810008FEF9FEF2D96E2E10C94E90CFC0105900F
:10182000615070400110D8F7809590958E0F9F1FE2
:101830000895FC016150704001900110D8F7809527
:1018400090958E0F9F1F08950F931F93CF93DF9353
:101850008C01EB018B8181FF1BC082FF0DC02E81AB
:101860003F818C819D812817390764F4E881F981D3
:101870000193F983E88306C0E885F985802F0995EF
:10188000009731F48E819F8101969F838E8302C0E1
:101890000FEF1FEFC801DF91CF911F910F910895B6
:1018A000FA01AA27283051F1203181F1E8946F9391
:1018B0006E7F6E5F7F4F8F4F9F4FAF4FB1E03ED037
:1018C000B4E03CD0670F781F891F9A1FA11D680FD5
:1018D000791F8A1F911DA11D6A0F711D811D911D08
:1018E000A11D20D009F468943F912AE0269F11247D
:1018F0003019305D3193DEF6CF010895462F4770E1
:10190000405D4193B3E00FD0C9F7F6CF462F4F703B
:10191000405D4A3318F0495D31FD4052419302D099
:10192000A9F7EACFB4E0A69597958795779567953F
:10193000BA95C9F700976105710508959B01AC013F
:101940000A2E06945795479537952795BA95C9F766
:10195000620F731F841F951FA01D0895629FD00101
:10196000739FF001829FE00DF11D649FE00DF11D5A
:10197000929FF00D839FF00D749FF00D659FF00D09
:101980009927729FB00DE11DF91F639FB00DE11DF6
:10199000F91FBD01CF01112408952F923F924F925C
:1019A0005F926F927F928F929F92AF92BF92CF92EF
:1019B000DF92EF92FF920F931F93CF93DF93CDB7F8
:1019C000DEB7CA1BDB0B0FB6F894DEBF0FBECDBF70
:1019D00009942A88398848885F846E847D848C8441
:1019E0009B84AA84B984C884DF80EE80FD800C814A
:1019F0001B81AA81B981CE0FD11D0FB6F894DEBF2D
:0C1A00000FBECDBFED010895F894FFCF9C
:101A0C00FF00000000000031323341003435364213
:101A1C000037383943003046454400D070E0B001FF
:101A2C000000010100010101010300030300020297
:101A3C00000704000302000702000302005445548F
:101A4C00524953202D2043535345323031302F43CC
:101A5C00535345373230312050726F6A65637400CE
:101A6C005465747269730000000003000000007577
:0A1A7C0006A70600000100000000AC
:00000001FF
